:020000040000FA
:1000000060020020F1020000F9020000FB02000083
:10001000FD020000FF0200000103000000000000DC
:1000200000000000000000000000000003030000CA
:1000300005030000000000000703000009030000A2
:100040000B0300000D0300000F030000110300006C
:10005000130300001503000017030000190300003C
:100060001B0300001D0300001F030000210300000C
:1000700023030000250300002703000029030000DC
:100080002B0300002D0300002F03000031030000AC
:10009000330300003503000037030000390300007C
:1000A0003B0300003D0300003F030000410300004C
:1000B000430300004503000047030000490300001C
:1000C0004B0300004D0300004F03000051030000EC
:1000D00053030000550300005703000059030000BC
:1000E0005B0300005D030000000000005F030000F0
:1000F0006103000063030000650300006703000064
:10010000690300006B0300006D0300006F03000033
:1001100000000000000000007103000073030000F5
:100120007503000077030000790300007B030000E3
:100130007D0300007F0300008103000083030000B3
:1001400000000000000000000000000000000000AF
:100150008503000087030000890300008B03000073
:10016000000000000000000000000000000000008F
:10017000000000000000000000000000000000007F
:10018000000000000000000000000000000000006F
:10019000000000000000000000000000000000005F
:1001A000000000000000000000000000000000004F
:1001B0008D0300008F0300009103000093030000F3
:1001C0009503000097030000990300009B030000C3
:1001D0009D0300009F030000A1030000A303000093
:1001E000A5030000A7030000A90300000000000011
:1001F00000000000AB030000AD030000AF030000EF
:10020000B1030000B3030000000000000000000084
:10021000B5030000B7030000B9030000BB030000F2
:10022000BD030000BF030000C1030000C3030000C2
:10023000C5030000C7030000C9030000CB03000092
:10024000CD030000CF030000D1030000D303000062
:10025000D5030000D7030000D9030000DB03000032
:10026000DD030000DF030000E103000000F002F8FE
:1002700000F02EF80AA090E8000C82448344AAF112
:100280000107DA4501D100F023F8AFF2090EBAE810
:100290000F0013F0010F18BFFB1A43F001031847BA
:1002A00054090000640900000023002400250026F2
:1002B000103A28BF78C1FBD8520728BF30C148BFC9
:1002C0000B6070471FB500F07FFC1FBD10B510BD5F
:1002D00000F09BF81146FFF7F5FF00F093FB00F0EC
:1002E000B9F803B4FFF7F2FF03BC00F0C1F8000057
:1002F0003F4880473F480047FEE7FEE7FEE7FEE74E
:10030000FEE7FEE7FEE7FEE7FEE7FEE7FEE7FEE7C5
:10031000FEE7FEE7FEE7FEE7FEE7FEE7FEE7FEE7B5
:10032000FEE7FEE7FEE7FEE7FEE7FEE7FEE7FEE7A5
:10033000FEE7FEE7FEE7FEE7FEE7FEE7FEE7FEE795
:10034000FEE7FEE7FEE7FEE7FEE7FEE7FEE7FEE785
:10035000FEE7FEE7FEE7FEE7FEE7FEE7FEE7FEE775
:10036000FEE7FEE7FEE7FEE7FEE7FEE7FEE7FEE765
:10037000FEE7FEE7FEE7FEE7FEE7FEE7FEE7FEE755
:10038000FEE7FEE7FEE7FEE7FEE7FEE7FEE7FEE745
:10039000FEE7FEE7FEE7FEE7FEE7FEE7FEE7FEE735
:1003A000FEE7FEE7FEE7FEE7FEE7FEE7FEE7FEE725
:1003B000FEE7FEE7FEE7FEE7FEE7FEE7FEE7FEE715
:1003C000FEE7FEE7FEE7FEE7FEE7FEE7FEE7FEE705
:1003D000FEE7FEE7FEE7FEE7FEE7FEE7FEE7FEE7F5
:1003E000FEE7000004480549034A054B704700003A
:1003F0006D0900006D020000600000206002002016
:1004000060000020704770477047754600F02CF878
:10041000AE4605006946534620F00700854618B0F1
:1004200020B5FFF7DFFFBDE820404FF000064FF09A
:1004300000074FF000084FF0000B21F00701AC4619
:10044000ACE8C009ACE8C009ACE8C009ACE8C00938
:100450008D46704710B50446AFF300802046BDE8D6
:100460001040FFF73EBF000000487047000000202A
:1004700001491820ABBEFEE72600020070470000CD
:1004800070B5014648798A79714B1B680124844014
:1004900023436F4C2360042803DA030303F1402352
:1004A00004E0031F6B4CA51405FB0343D3F8004481
:1004B000012393401C43042803DA030303F1402380
:1004C00004E0031F634DAE1406FB0353C3F800445E
:1004D0000B79EBB9042803DA030303F1402304E0AA
:1004E000031F5C4CA51405FB0343D3F8004501230F
:1004F00093401C43042803DA030303F1402304E080
:10050000031F544DAE1406FB0353C3F8004540E0EF
:100510000B79012B1DD1042803DA030303F14023D7
:1005200004E0031F4B4CA51405FB0343D3F804451B
:10053000012393401C43042803DA030303F14023FF
:1005400004E0031F434DAE1406FB0353C3F80445F8
:100550001FE00B79022B1CD1042803DA030303F1FB
:10056000402304E0031F3B4CA51405FB0343D3F8D1
:100570000845012393401C43042803DA030303F1D5
:10058000402304E0031F334DAE1406FB0353C3F8AE
:100590000845CB78EBB9042803DA030303F14023C1
:1005A00004E0031F2B4CA51405FB0343D3F81045AF
:1005B000012393401C43042803DA030303F140237F
:1005C00004E0031F234DAE1406FB0353C3F810458C
:1005D0001FE0CB78012B1CD1042803DA030303F1BD
:1005E000402304E0031F1B4CA51405FB0343D3F871
:1005F0001445012393401C43042803DA030303F149
:10060000402304E0031F134DAE1406FB0353C3F84D
:100610001445042803DA030303F1402304E0031F15
:100620000C4CA51405FB0343D3F81C450123934050
:100630001C43042803DA030303F1402304E0031FEF
:10064000044DAE1406FB0353C3F81C4570BD0000F7
:1006500008E60F400040024070B5014648798A79AB
:10066000042803DA030303F1402304E0031F0B4CC7
:10067000A51405FB0343D3F8FC43012393409C439B
:10068000042803DA030303F1402304E0031F034DAE
:10069000AE1406FB0353C3F8FC4370BD0040024098
:1006A00070B5014648798A79042803DA030303F117
:1006B000402304E0031F0B4CA51405FB0343D3F8B0
:1006C000FC43012393401C43042803DA030303F192
:1006D000402304E0031F034DAE1406FB0353C3F88D
:1006E000FC4370BD0040024070B5024650799179DC
:1006F0008E4B1B680124844023438C4C23600428C8
:1007000003DA030303F1402304E0031F884CA5141C
:1007100005FB0343D3F8004401238B409C4304288A
:1007200003DA030303F1402304E0031F804DAE14FA
:1007300006FB0353C3F80044042803DA030303F160
:10074000402304E0031F7A4CA51405FB0343D3F8B0
:10075000204401238B409C43042803DA030303F164
:10076000402304E0031F724DAE1406FB0353C3F88D
:100770002044042803DA030303F1402304E0031FA9
:100780006B4CA51405FB0343D3F8284501238B408C
:100790009C43042803DA030303F1402304E0031F0E
:1007A000634DAE1406FB0353C3F828451379EBB928
:1007B000042803DA030303F1402304E0031F5C4C25
:1007C000A51405FB0343D3F8004501238B401C43CC
:1007D000042803DA030303F1402304E0031F544D0C
:1007E000AE1406FB0353C3F8004540E01379012B18
:1007F0001DD1042803DA030303F1402304E0031F9F
:100800004B4CA51405FB0343D3F8044501238B404F
:100810001C43042803DA030303F1402304E0031F0D
:10082000434DAE1406FB0353C3F804451FE0137990
:10083000022B1CD1042803DA030303F1402304E054
:10084000031F3B4CA51405FB0343D3F808450123C4
:100850008B401C43042803DA030303F1402304E024
:10086000031F334DAE1406FB0353C3F80845D3787A
:10087000EBB9042803DA030303F1402304E0031F68
:100880002B4CA51405FB0343D3F8104501238B40E3
:100890001C43042803DA030303F1402304E0031F8D
:1008A000234DAE1406FB0353C3F810451FE0D37865
:1008B000012B1CD1042803DA030303F1402304E0D5
:1008C000031F1B4CA51405FB0343D3F81445012358
:1008D0008B401C43042803DA030303F1402304E0A4
:1008E000031F134DAE1406FB0353C3F8144504282D
:1008F00003DA030303F1402304E0031F0C4CA514A7
:1009000005FB0343D3F81C4501238B401C430428FB
:1009100003DA030303F1402304E0031F044DAE1484
:1009200006FB0353C3F81C4570BD000008E60F40EA
:100930000040024070B50A4641798379042903DA00
:100940000C0304F1402404E00C1F074DAE1406FB19
:100950000454D4F8FC4301259D402C400CB10124E3
:1009600000E00024147070BD004002401B4909687B
:1009700041F47001194A116019491A4A11671A495C
:1009800011661A4911661A491167002000E0401CDF
:10099000B0F57A7FFBD31749124A116616491167E1
:1009A000002000E0401CB0F57A7FFBD313490D4ACC
:1009B000116600BF0B49096D01F040014029F9D1D2
:1009C0000F49084A11664FF0C0711167002000E01E
:1009D000401C42F210718842FAD3704788ED00E063
:1009E0001028800700E00F40D13A8E07422D9E016B
:1009F00000288001420D9E0100088001420DDE01A9
:100A00004205DE018AB0594803C8CDE908015749BB
:100A1000083103C9CDE906015449103103C9CDE9B4
:100A200004015249183103C9CDE9020108A8FFF7B2
:100A300027FD04A8FFF724FD06A8FFF721FD02A863
:100A4000FFF752FE91E003E001A902A8FFF772FF51
:100A50009DF804000028F7D003E001A902A8FFF7E1
:100A600069FF9DF804000128F7D008A8FFF718FED9
:100A70004FF47A7000F07CF803E001A902A8FFF7B8
:100A800059FF9DF804000028F7D003E001A902A84F
:100A9000FFF750FF9DF804000128F7D008A8FFF7E2
:100AA000DBFD04A8FFF7FCFD4FF47A7000F060F85E
:100AB00003E001A902A8FFF73DFF9DF8040000280C
:100AC000F7D003E001A902A8FFF734FF9DF8040066
:100AD0000128F7D008A8FFF7BFFD04A8FFF7BCFD69
:100AE00006A8FFF7DDFD4FF47A7000F041F803E04F
:100AF00001A902A8FFF71EFF9DF804000028F7D007
:100B000003E001A902A8FFF715FF9DF804000128E2
:100B1000F7D008A8FFF7C4FD04A8FFF7C1FD06A899
:100B2000FFF7BEFD4FF47A7000F022F803E001A950
:100B300002A8FFF7FFFE9DF804000028F7D003E0AD
:100B400001A902A8FFF7F6FE9DF804000128F7D0DE
:100B500008A8FFF781FD04A8FFF77EFD06A8FFF7B0
:100B60007BFD4FF47A7000F003F86CE7D40B0000C3
:100B7000134A126842F00102114B1A600022114B15
:100B8000DA6004221A6002225A6043F67F629A6297
:100B900001225A621A46D26842F00102DA6000214C
:100BA0000AE000BF074AD26902F00102002AF9D028
:100BB0000122044B5A62491C8142F2DB704700005B
:100BC00004E60F40000003404FF04070E1EE100AD1
:100BD0007047000001010000020501000101000052
:100BE00002050200010100000205030000000000F0
:100BF00000050400040C000000000020600200005A
:040C0000A802000046
:04000005000002F104
:00000001FF
