:020000040000FA
:1000000060020020F1020000F9020000FB02000083
:10001000FD020000FF0200000103000000000000DC
:1000200000000000000000000000000003030000CA
:1000300005030000000000000703000009030000A2
:100040000B0300000D0300000F030000110300006C
:10005000130300001503000017030000190300003C
:100060001B0300001D0300001F030000210300000C
:1000700023030000250300002703000029030000DC
:100080002B0300002D0300002F03000031030000AC
:10009000330300003503000037030000390300007C
:1000A0003B0300003D0300003F030000410300004C
:1000B000430300004503000047030000490300001C
:1000C0004B0300004D0300004F03000051030000EC
:1000D00053030000550300005703000059030000BC
:1000E0005B0300005D030000000000005F030000F0
:1000F0006103000063030000650300006703000064
:10010000690300006B0300006D0300006F03000033
:1001100000000000000000007103000073030000F5
:100120007503000077030000790300007B030000E3
:100130007D0300007F0300008103000083030000B3
:1001400000000000000000000000000000000000AF
:100150008503000087030000890300008B03000073
:10016000000000000000000000000000000000008F
:10017000000000000000000000000000000000007F
:10018000000000000000000000000000000000006F
:10019000000000000000000000000000000000005F
:1001A000000000000000000000000000000000004F
:1001B0008D0300008F0300009103000093030000F3
:1001C0009503000097030000990300009B030000C3
:1001D0009D0300009F030000A1030000A303000093
:1001E000A5030000A7030000A90300000000000011
:1001F00000000000AB030000AD030000AF030000EF
:10020000B1030000B3030000000000000000000084
:10021000B5030000B7030000B9030000BB030000F2
:10022000BD030000BF030000C1030000C3030000C2
:10023000C5030000C7030000C9030000CB03000092
:10024000CD030000CF030000D1030000D303000062
:10025000D5030000D7030000D9030000DB03000032
:10026000DD030000DF030000E103000000F002F8FE
:1002700000F02EF80AA090E8000C82448344AAF112
:100280000107DA4501D100F023F8AFF2090EBAE810
:100290000F0013F0010F18BFFB1A43F001031847BA
:1002A000280900003809000000230024002500264A
:1002B000103A28BF78C1FBD8520728BF30C148BFC9
:1002C0000B6070471FB500F069FC1FBD10B510BD75
:1002D00000F09BF81146FFF7F5FF00F0B9FB00F0C6
:1002E000B9F803B4FFF7F2FF03BC00F0C1F8000057
:1002F0003F4880473F480047FEE7FEE7FEE7FEE74E
:10030000FEE7FEE7FEE7FEE7FEE7FEE7FEE7FEE7C5
:10031000FEE7FEE7FEE7FEE7FEE7FEE7FEE7FEE7B5
:10032000FEE7FEE7FEE7FEE7FEE7FEE7FEE7FEE7A5
:10033000FEE7FEE7FEE7FEE7FEE7FEE7FEE7FEE795
:10034000FEE7FEE7FEE7FEE7FEE7FEE7FEE7FEE785
:10035000FEE7FEE7FEE7FEE7FEE7FEE7FEE7FEE775
:10036000FEE7FEE7FEE7FEE7FEE7FEE7FEE7FEE765
:10037000FEE7FEE7FEE7FEE7FEE7FEE7FEE7FEE755
:10038000FEE7FEE7FEE7FEE7FEE7FEE7FEE7FEE745
:10039000FEE7FEE7FEE7FEE7FEE7FEE7FEE7FEE735
:1003A000FEE7FEE7FEE7FEE7FEE7FEE7FEE7FEE725
:1003B000FEE7FEE7FEE7FEE7FEE7FEE7FEE7FEE715
:1003C000FEE7FEE7FEE7FEE7FEE7FEE7FEE7FEE705
:1003D000FEE7FEE7FEE7FEE7FEE7FEE7FEE7FEE7F5
:1003E000FEE7000004480549034A054B704700003A
:1003F000C10900006D0200006000002060020020C2
:1004000060000020704770477047754600F02CF878
:10041000AE4605006946534620F00700854618B0F1
:1004200020B5FFF7DFFFBDE820404FF000064FF09A
:1004300000074FF000084FF0000B21F00701AC4619
:10044000ACE8C009ACE8C009ACE8C009ACE8C00938
:100450008D46704710B50446AFF300802046BDE8D6
:100460001040FFF73EBF000000487047000000202A
:1004700001491820ABBEFEE72600020070470000CD
:1004800070B5014648798A79714B1B680124844014
:1004900023436F4C2360042803DA030303F1402352
:1004A00004E0031F6B4CA51405FB0343D3F8004481
:1004B000012393401C43042803DA030303F1402380
:1004C00004E0031F634DAE1406FB0353C3F800445E
:1004D0000B79EBB9042803DA030303F1402304E0AA
:1004E000031F5C4CA51405FB0343D3F8004501230F
:1004F00093401C43042803DA030303F1402304E080
:10050000031F544DAE1406FB0353C3F8004540E0EF
:100510000B79012B1DD1042803DA030303F14023D7
:1005200004E0031F4B4CA51405FB0343D3F804451B
:10053000012393401C43042803DA030303F14023FF
:1005400004E0031F434DAE1406FB0353C3F80445F8
:100550001FE00B79022B1CD1042803DA030303F1FB
:10056000402304E0031F3B4CA51405FB0343D3F8D1
:100570000845012393401C43042803DA030303F1D5
:10058000402304E0031F334DAE1406FB0353C3F8AE
:100590000845CB78EBB9042803DA030303F14023C1
:1005A00004E0031F2B4CA51405FB0343D3F81045AF
:1005B000012393401C43042803DA030303F140237F
:1005C00004E0031F234DAE1406FB0353C3F810458C
:1005D0001FE0CB78012B1CD1042803DA030303F1BD
:1005E000402304E0031F1B4CA51405FB0343D3F871
:1005F0001445012393401C43042803DA030303F149
:10060000402304E0031F134DAE1406FB0353C3F84D
:100610001445042803DA030303F1402304E0031F15
:100620000C4CA51405FB0343D3F81C450123934050
:100630001C43042803DA030303F1402304E0031FEF
:10064000044DAE1406FB0353C3F81C4570BD0000F7
:1006500008E60F400040024070B5014648798A79AB
:10066000042803DA030303F1402304E0031F0B4CC7
:10067000A51405FB0343D3F8FC43012393409C439B
:10068000042803DA030303F1402304E0031F034DAE
:10069000AE1406FB0353C3F8FC4370BD0040024098
:1006A00070B5014648798A79042803DA030303F117
:1006B000402304E0031F0B4CA51405FB0343D3F8B0
:1006C000FC43012393401C43042803DA030303F192
:1006D000402304E0031F034DAE1406FB0353C3F88D
:1006E000FC4370BD0040024070B5024650799179DC
:1006F0008E4B1B680124844023438C4C23600428C8
:1007000003DA030303F1402304E0031F884CA5141C
:1007100005FB0343D3F8004401238B409C4304288A
:1007200003DA030303F1402304E0031F804DAE14FA
:1007300006FB0353C3F80044042803DA030303F160
:10074000402304E0031F7A4CA51405FB0343D3F8B0
:10075000204401238B409C43042803DA030303F164
:10076000402304E0031F724DAE1406FB0353C3F88D
:100770002044042803DA030303F1402304E0031FA9
:100780006B4CA51405FB0343D3F8284501238B408C
:100790009C43042803DA030303F1402304E0031F0E
:1007A000634DAE1406FB0353C3F828451379EBB928
:1007B000042803DA030303F1402304E0031F5C4C25
:1007C000A51405FB0343D3F8004501238B401C43CC
:1007D000042803DA030303F1402304E0031F544D0C
:1007E000AE1406FB0353C3F8004540E01379012B18
:1007F0001DD1042803DA030303F1402304E0031F9F
:100800004B4CA51405FB0343D3F8044501238B404F
:100810001C43042803DA030303F1402304E0031F0D
:10082000434DAE1406FB0353C3F804451FE0137990
:10083000022B1CD1042803DA030303F1402304E054
:10084000031F3B4CA51405FB0343D3F808450123C4
:100850008B401C43042803DA030303F1402304E024
:10086000031F334DAE1406FB0353C3F80845D3787A
:10087000EBB9042803DA030303F1402304E0031F68
:100880002B4CA51405FB0343D3F8104501238B40E3
:100890001C43042803DA030303F1402304E0031F8D
:1008A000234DAE1406FB0353C3F810451FE0D37865
:1008B000012B1CD1042803DA030303F1402304E0D5
:1008C000031F1B4CA51405FB0343D3F81445012358
:1008D0008B401C43042803DA030303F1402304E0A4
:1008E000031F134DAE1406FB0353C3F8144504282D
:1008F00003DA030303F1402304E0031F0C4CA514A7
:1009000005FB0343D3F81C4501238B401C430428FB
:1009100003DA030303F1402304E0031F044DAE1484
:1009200006FB0353C3F81C4570BD000008E60F40EA
:100930000040024070B50A4641798379042903DA00
:100940000C0304F1402404E00C1F074DAE1406FB19
:100950000454D4F8FC4301259D402C400CB10124E3
:1009600000E00024147070BD0040024040B94FF018
:10097000E022126922F004024FF0E0231A6109E03C
:10098000012807D14FF0E022126942F004024FF033
:10099000E0231A61012908D14FF0E022126942F0E8
:1009A00002024FF0E0231A6108E039B94FF0E0226B
:1009B000126922F002024FF0E0231A617047000032
:1009C0001B49096841F47001194A116019491A4A12
:1009D00011671A4911661A4911661A4911670020F0
:1009E00000E0401CB0F57A7FFBD31749124A11662C
:1009F00016491167002000E0401CB0F57A7FFBD358
:100A000011490D4A116600BF0B49096D01F0400103
:100A10004029F9D10C49084A11664FF0C07111679D
:100A2000002000E0401C42F210718842FAD3704767
:100A300088ED00E01028800700E00F40D13A8E07D3
:100A4000422D9E0100288001420D9E010008800178
:100A50008AB0514803C8CDE908014F49083103C99C
:100A6000CDE906014C49103103C9CDE904014A49D9
:100A7000183103C9CDE9020108A8FFF701FD04A858
:100A8000FFF7FEFC06A8FFF7FBFC02A8FFF72CFE11
:100A900000210120FFF76AFF7DE003E001A902A821
:100AA000FFF748FF9DF804000028F7D003E001A9F4
:100AB00002A8FFF73FFF9DF804000128F7D008A81F
:100AC000FFF7EEFD03E001A902A8FFF733FF9DF851
:100AD00004000028F7D003E001A902A8FFF72AFFCD
:100AE0009DF804000128F7D008A8FFF7B5FD04A879
:100AF000FFF7D6FD03E001A902A8FFF71BFF9DF851
:100B000004000028F7D003E001A902A8FFF712FFB4
:100B10009DF804000128F7D008A8FFF79DFD04A860
:100B2000FFF79AFD06A8FFF7BBFD03E001A902A8A5
:100B3000FFF700FF9DF804000028F7D003E001A9AB
:100B400002A8FFF7F7FE9DF804000128F7D008A8D7
:100B5000FFF7A6FD04A8FFF7A3FD06A8FFF7A0FD79
:100B600003E001A902A8FFF7E5FE9DF804000028B4
:100B7000F7D003E001A902A8FFF7DCFE9DF804000E
:100B80000128F7D008A8FFF767FD04A8FFF764FD68
:100B900006A8FFF761FD80E7A80B00004FF040704A
:100BA000E1EE100A7047000001010000020501009B
:100BB000010100000205020001010000020503001E
:100BC0000000000000050400D80B00000000002019
:080BD00060020000A802000011
:04000005000002F104
:00000001FF
